{
  "contractName": "Basic",
  "abi": [
    {
      "inputs": [],
      "name": "contractOwner",
      "outputs": [
        {
          "internalType": "address",
          "name": "",
          "type": "address"
        }
      ],
      "stateMutability": "view",
      "type": "function"
    },
    {
      "inputs": [],
      "name": "getA",
      "outputs": [
        {
          "internalType": "uint256",
          "name": "aVal",
          "type": "uint256"
        }
      ],
      "stateMutability": "view",
      "type": "function"
    },
    {
      "inputs": [
        {
          "internalType": "uint256",
          "name": "x",
          "type": "uint256"
        }
      ],
      "name": "setA",
      "outputs": [],
      "stateMutability": "nonpayable",
      "type": "function"
    }
  ],
  "bytecode": "0x6080604052600a60005533600160006101000a81548173ffffffffffffffffffffffffffffffffffffffff021916908373ffffffffffffffffffffffffffffffffffffffff16021790555034801561005657600080fd5b506101fb806100666000396000f3fe608060405234801561001057600080fd5b50600436106100415760003560e01c8063ce606ee014610046578063d46300fd14610064578063ee919d5014610082575b600080fd5b61004e61009e565b60405161005b9190610118565b60405180910390f35b61006c6100c4565b604051610079919061014c565b60405180910390f35b61009c60048036038101906100979190610198565b6100cd565b005b600160009054906101000a900473ffffffffffffffffffffffffffffffffffffffff1681565b60008054905090565b8060008190555050565b600073ffffffffffffffffffffffffffffffffffffffff82169050919050565b6000610102826100d7565b9050919050565b610112816100f7565b82525050565b600060208201905061012d6000830184610109565b92915050565b6000819050919050565b61014681610133565b82525050565b6000602082019050610161600083018461013d565b92915050565b600080fd5b61017581610133565b811461018057600080fd5b50565b6000813590506101928161016c565b92915050565b6000602082840312156101ae576101ad610167565b5b60006101bc84828501610183565b9150509291505056fea2646970667358221220478ee8e861578d035f545817890c316d085cee530eab8d187d833d691f8b0bc264736f6c634300080b0033",
  "immutableReferences": {},
  "source": "// SPDX-License-Identifier: GPL-3.0\r\n\r\npragma solidity >=0.7.0 <0.9.0;\r\n\r\ncontract Basic{\r\n    uint a = 10;\r\n    address public contractOwner = msg.sender;\r\n\r\n    function getA() public view returns(uint aVal){\r\n        return a;\r\n    }\r\n\r\n    function setA(uint x) public{\r\n        a = x;\r\n    }\r\n}",
  "sourcePath": "C:\\Users\\KIIT\\Desktop\\ALL CODE ND STUFFS\\current-working\\projects\\Basic Ethereum Dapp\\contracts\\Basic.sol",
  "compiler": {
    "name": "solc",
    "version": "0.8.11+commit.d7f03943.Emscripten.clang"
  },
  "schemaVersion": "3.4.5",
  "updatedAt": "2022-02-25T11:34:17.011Z",
  "devdoc": {
    "kind": "dev",
    "methods": {},
    "version": 1
  },
  "userdoc": {
    "kind": "user",
    "methods": {},
    "version": 1
  }
}